:020000040000FA
:04000000C6EF07F050
:10080000003738392F3435362A3132332D0D303D0B
:100810002B00434C4156452041435455414C005414
:0F08200045434C41444F00202020202020000061
:10083000D7EC05F0166EF0EF04F01650D8B423EFA5
:1008400004F025EF04F032EF04F02B0E1618D8A4B4
:100850002CEF04F02EEF04F032EF04F000EC08F07F
:1008600011EF05F01650D8B438EF04F03AEF04F069
:1008700011EF05F0898016C017F0010E156E080EF5
:10088000246E020EA2EC06F0165075EC07F0030E73
:10089000386E080E376E770EE82EFED7372EFCD74F
:1008A000382EFAD700F011EF05F01650D8B45BEFF0
:1008B00004F05DEF04F011EF05F016C018F0020E21
:1008C000156E090E246E020EA2EC06F0165075ECA1
:1008D00007F047EF04F01650D8B471EF04F073EF4F
:1008E00004F011EF05F016C019F0030E156E0A0E94
:1008F000246E020EA2EC06F0165075EC07F047EFDE
:1009000004F01650D8B487EF04F089EF04F011EF2B
:1009100005F016C01AF0040E156E0B0E246E020EB2
:10092000A2EC06F0165075EC07F047EF04F01650F5
:10093000D8B49DEF04F09FEF04F0C3EF04F03D0E38
:100940001618D8B4A6EF04F0A8EF04F0C3EF04F033
:100950008990000E156E080E246E020EA2EC06F0B1
:10096000270E256E080E266E03EC07F0040E386E77
:100970000C0E376E340EE82EFED7372EFCD7382EED
:10098000FAD711EF05F01650D8B4C9EF04F0CBEF49
:1009900004F011EF05F03D0E1618D8A4D2EF04F0C4
:1009A000D4EF04F011EF05F08990000E1B6E170EC6
:1009B000286E000E296E12EC05F028C03BF029C00D
:1009C0003CF0000E156E080E246E020EA2EC06F02E
:1009D000270E256E080E266E03EC07F0B6EF04F026
:1009E0001550376E386A3850000AD8B4FAEF04F060
:1009F00011EF05F03750000AD8B41DEF04F0010ADA
:100A0000D8B455EF04F0030AD8B46BEF04F0010A30
:100A1000D8B481EF04F0070AD8B497EF04F011EFCF
:100A200005F01200000E366E000E356E000E2F6EB1
:100A3000000E2E6E1EEF05F0284A292A010E346E94
:100A400028C0D9FF29C0DAFF200EDE18D8B42BEF5A
:100A500005F02DEF05F049EF05F0F70E2A6EFF0EB9
:100A60002B6E28C0D9FF29C0DAFFDF502C6E2D6A0B
:100A70002A502C262B502D222D5009E1050E2C5CDE
:100A8000D8A045EF05F047EF05F049EF05F0000E5F
:100A9000346E34C030F0316A30503110D8A453EF86
:100AA00005F055EF05F01CEF05F05FEF05F0000EC7
:100AB0002F6E010E2E6E284A292A94EF05F028C0C9
:100AC000D9FF29C0DAFFDF502A6E2B6A2B50000AAB
:100AD000D8B46DEF05F094EF05F02A502B0AD8B486
:100AE0005BEF05F0060AD8B457EF05F094EF05F078
:100AF00035C021F036C022F0000E246E0A0E236E9F
:100B0000DDEC07F028C0D9FF29C0DAFFDF502A6EDC
:100B10002A50215E000E225A300E2124356E000E1E
:100B20002220366E5BEF05F0D00E2A6EFF0E2B6E84
:100B300028C0D9FF29C0DAFFDF502C6E2D6A2A5059
:100B40002C262B502D222D500AE10A0E2C5CD8A009
:100B5000ACEF05F0AFEF05F0010EB0EF05F0000EC1
:100B6000326E336A32503310D8A4B9EF05F0BBEFC0
:100B700005F078EF05F02E502F10D8A4C2EF05F045
:100B8000C4EF05F0D2EF05F035C02AF036C02BF0E7
:100B90002A1E2B1E2A4A2B2A2AC028F02BC029F0F5
:100BA000D6EF05F035C028F036C029F01200010E4E
:100BB000F66E080EF76E20EE21F0100E0900F5CF4C
:100BC000DEFFE806FBE2000E336E000E326E000E12
:100BD000356E010E346E3438F00B8C6E83A0F3EF5B
:100BE00005F0F5EF05F0F7EF05F028EF06F0324AD3
:100BF000332A83A2FEEF05F000EF06F002EF06F0C5
:100C000028EF06F0324A332A83A409EF06F00BEFEF
:100C100006F00DEF06F028EF06F0324A332A83A6DD
:100C200014EF06F016EF06F018EF06F028EF06F0C6
:100C3000324A332AD89034363536355009E1100E11
:100C4000345CD8A026EF06F028EF06F0EBEF05F0B5
:100C5000000E836E210E3224D96E000E3320DA6E20
:100C6000DF501200000ED5EC06F01A0E246EF80EBE
:100C7000E82EFED7242EFCD700D0030EF0EC07F0B0
:100C8000070E246E7D0EE82EFED7242EFCD700F032
:100C9000030EF0EC07F00F0E246E480EE82EFED780
:100CA000242EFCD7030EF0EC07F0020EF0EC07F058
:100CB000020EF0EC07F0080EF0EC07F0000EF0EC7E
:100CC00007F00C0EF0EC07F0000EF0EC07F0060E4B
:100CD000F0EC07F012001EEC08F0000E0F015B6F45
:100CE000000E5C6F000E5D6F000E5E6F000E5F6F9A
:100CF00023EC08F0000E936E32EC06F017EC08F0CF
:100D0000060E246E010EA2EC06F01F0E256E080ED4
:100D1000266E03EC07F0949092908B8089908BA0C4
:100D200094EF06F097EF06F08B8098EF06F08B902B
:100D30003BC039F03CC03AF0ADEC07F08FEF06F065
:100D400000EF00F0256E2504D8A4A9EF06F0ABEF64
:100D500006F0BCEF06F024507F0F286E28380F0BEA
:100D6000266E28500F0B276E2650F0EC07F0275008
:100D7000F0EC07F0D4EF06F0020E2518D8A4C3EF6C
:100D800006F0C5EF06F0D4EF06F02450BF0F286E32
:100D900028380F0B266E28500F0B276E2650F0ECCC
:100DA00007F02750F0EC07F01200216E21A0DBEFD6
:100DB00006F0DDEF06F0E0EF06F0818AE1EF06F0E5
:100DC000819A21A2E6EF06F0E8EF06F0EBEF06F0DD
:100DD0008188ECEF06F0819821A4F1EF06F0F3EFA3
:100DE00006F0F6EF06F08186F7EF06F0819621A671
:100DF000FCEF06F0FEEF06F001EF07F0818402EF52
:100E000007F081941200000E2A6E000E296E19EF71
:100E100007F029502524276E2A502620286E27C047
:100E2000F6FF28C0F7FF0800F55075EC07F0294AD7
:100E30002A2A29502524276E2A502620286E27C0CA
:100E4000F6FF28C0F7FF0800F5500009D8A42BEFE3
:100E500007F02DEF07F009EF07F01200010E276EE3
:100E6000200E21182210D8B438EF07F03AEF07F01F
:100E700053EF07F0F70E236EFF0E246E21C025F00E
:100E800022C026F02350252624502622265009E190
:100E9000050E255CD8A04FEF07F051EF07F053EF98
:100EA00007F0000E276E27C021F0226A1200000E04
:100EB0008D6E000E8C6E000E896E000E8A6E000E16
:100EC0008B6E070E966E92689368C70E946E956847
:100ED000C40E0F015D6F3F0E5C6F5E69070E5F6FA2
:100EE0002F0E5B6F8568F19E1200246E24500F0B4D
:100EF000226E2450F00B236E818E23380F0BD5EC1D
:100F000006F0818C0D0EE82EFED700F0819C225059
:100F1000D5EC06F0818C0D0EE82EFED700F0819CFA
:100F20001200D00E236EFF0E246E21C025F022C0C9
:100F300026F0235025262450262226500AE10A0EA8
:100F4000255CD8A0A6EF07F0A9EF07F0010EAAEFE5
:100F500007F0000E216E226A1200B8EF07F0E90ECA
:100F6000E82EFED700F018EC04F03906D8A03A06B7
:100F70003ABEC5EF07F03A5006E13904D8B0C3EFE6
:100F800007F0C5EF07F0AFEF07F012004C0EF66E5A
:100F9000100EF76E000EF86E0900F5CF3BF0090059
:100FA000F5CF3CF000EE01F0200EEE6AE806FDE120
:100FB000000EF86E00016BEF06F021502302F3CF14
:100FC00025F0F4CF26F021502402F350262622509B
:100FD0002302F350262625C021F026C022F012005D
:100FE000236E819E2350D5EC06F0818C060E226E76
:100FF000300EE82EFED7222EFCD700D0819C1200A6
:1010000017EC08F0060E246E010EA2EC06F0120E8C
:10101000256E080E266E03EC07F01200100ED36E3C
:10102000000ED26E000E9B6E000EB56E1200000E0A
:10103000F0EC07F0010EF0EC07F0120057EC07F0AF
:0E1040000EEC08F012000F0E956E1200640008
:020000040020DA
:08000000FFFFFFFFFFFFFFFF00
:020000040030CA
:0E00000020215E3CFFD381FF0FC00FE00F40B8
:00000001FF
